{
  "contractName": "ReputationSystem",
  "abi": [
    {
      "inputs": [
        {
          "internalType": "address",
          "name": "",
          "type": "address"
        }
      ],
      "name": "reputation",
      "outputs": [
        {
          "internalType": "uint256",
          "name": "",
          "type": "uint256"
        }
      ],
      "stateMutability": "view",
      "type": "function"
    },
    {
      "inputs": [
        {
          "internalType": "address",
          "name": "player",
          "type": "address"
        }
      ],
      "name": "increaseReputation",
      "outputs": [],
      "stateMutability": "nonpayable",
      "type": "function"
    },
    {
      "inputs": [
        {
          "internalType": "address",
          "name": "player",
          "type": "address"
        }
      ],
      "name": "decreaseReputation",
      "outputs": [],
      "stateMutability": "nonpayable",
      "type": "function"
    },
    {
      "inputs": [
        {
          "internalType": "address",
          "name": "player",
          "type": "address"
        }
      ],
      "name": "getReputation",
      "outputs": [
        {
          "internalType": "uint256",
          "name": "",
          "type": "uint256"
        }
      ],
      "stateMutability": "view",
      "type": "function"
    }
  ],
  "bytecode": "0x6080604052348015600e575f80fd5b5061054f8061001c5f395ff3fe608060405234801561000f575f80fd5b506004361061004a575f3560e01c80634f76dc611461004e5780638651fc511461006a5780639c89a0e214610086578063b9f79451146100b6575b5f80fd5b61006860048036038101906100639190610342565b6100e6565b005b610084600480360381019061007f9190610342565b6101b9565b005b6100a0600480360381019061009b9190610342565b61028b565b6040516100ad9190610385565b60405180910390f35b6100d060048036038101906100cb9190610342565b6102d0565b6040516100dd9190610385565b60405180910390f35b60285f808373ffffffffffffffffffffffffffffffffffffffff1673ffffffffffffffffffffffffffffffffffffffff1681526020019081526020015f205410610165576040517f08c379a000000000000000000000000000000000000000000000000000000000815260040161015c906103f8565b60405180910390fd5b5f808273ffffffffffffffffffffffffffffffffffffffff1673ffffffffffffffffffffffffffffffffffffffff1681526020019081526020015f205f8154809291906101b190610443565b919050555050565b5f805f8373ffffffffffffffffffffffffffffffffffffffff1673ffffffffffffffffffffffffffffffffffffffff1681526020019081526020015f205411610237576040517f08c379a000000000000000000000000000000000000000000000000000000000815260040161022e906104d4565b60405180910390fd5b5f808273ffffffffffffffffffffffffffffffffffffffff1673ffffffffffffffffffffffffffffffffffffffff1681526020019081526020015f205f815480929190610283906104f2565b919050555050565b5f805f8373ffffffffffffffffffffffffffffffffffffffff1673ffffffffffffffffffffffffffffffffffffffff1681526020019081526020015f20549050919050565b5f602052805f5260405f205f915090505481565b5f80fd5b5f73ffffffffffffffffffffffffffffffffffffffff82169050919050565b5f610311826102e8565b9050919050565b61032181610307565b811461032b575f80fd5b50565b5f8135905061033c81610318565b92915050565b5f60208284031215610357576103566102e4565b5b5f6103648482850161032e565b91505092915050565b5f819050919050565b61037f8161036d565b82525050565b5f6020820190506103985f830184610376565b92915050565b5f82825260208201905092915050565b7f4d61782072657075746174696f6e2072656163686564000000000000000000005f82015250565b5f6103e260168361039e565b91506103ed826103ae565b602082019050919050565b5f6020820190508181035f83015261040f816103d6565b9050919050565b7f4e487b71000000000000000000000000000000000000000000000000000000005f52601160045260245ffd5b5f61044d8261036d565b91507fffffffffffffffffffffffffffffffffffffffffffffffffffffffffffffffff820361047f5761047e610416565b5b600182019050919050565b7f4d696e2072657075746174696f6e2072656163686564000000000000000000005f82015250565b5f6104be60168361039e565b91506104c98261048a565b602082019050919050565b5f6020820190508181035f8301526104eb816104b2565b9050919050565b5f6104fc8261036d565b91505f820361050e5761050d610416565b5b60018203905091905056fea2646970667358221220ea4d584438466cc1c4f645ad0526a40761b9cfa9541ae0dc746ffe63ffda42c364736f6c634300081a0033",
  "immutableReferences": {},
  "source": "// SPDX-License-Identifier: MIT\r\npragma solidity ^0.8.0;\r\n\r\ncontract ReputationSystem {\r\n    mapping(address => uint256) public reputation;\r\n\r\n    function increaseReputation(address player) external {\r\n        require(reputation[player] < 40, \"Max reputation reached\");\r\n        reputation[player]++;\r\n    }\r\n\r\n    function decreaseReputation(address player) external {\r\n        require(reputation[player] > 0, \"Min reputation reached\");\r\n        reputation[player]--;\r\n    }\r\n\r\n    function getReputation(address player) external view returns (uint256) {\r\n        return reputation[player];\r\n    }\r\n}\r\n",
  "sourcePath": "C:\\Users\\Filippo\\Desktop\\Magistrale\\Blockchain\\blockchain-reputability\\contracts\\reputationSystem.sol",
  "compiler": {
    "name": "solc",
    "version": "0.8.26+commit.8a97fa7a.Emscripten.clang"
  },
  "schemaVersion": "3.4.16",
  "updatedAt": "2024-06-20T14:38:08.678Z",
  "devdoc": {
    "kind": "dev",
    "methods": {},
    "version": 1
  },
  "userdoc": {
    "kind": "user",
    "methods": {},
    "version": 1
  }
}